{
  "abi": [
    {
      "inputs": [],
      "name": "PRBMathSD59x18__AbsInputTooSmall",
      "type": "error"
    },
    {
      "inputs": [
        {
          "internalType": "int256",
          "name": "x",
          "type": "int256"
        }
      ],
      "name": "PRBMathSD59x18__Exp2InputTooBig",
      "type": "error"
    },
    {
      "inputs": [
        {
          "internalType": "int256",
          "name": "x",
          "type": "int256"
        }
      ],
      "name": "PRBMathSD59x18__ExpInputTooBig",
      "type": "error"
    },
    {
      "inputs": [
        {
          "internalType": "int256",
          "name": "x",
          "type": "int256"
        }
      ],
      "name": "PRBMathSD59x18__LogInputTooSmall",
      "type": "error"
    },
    {
      "inputs": [],
      "name": "PRBMathSD59x18__MulInputTooSmall",
      "type": "error"
    },
    {
      "inputs": [
        {
          "internalType": "uint256",
          "name": "rAbs",
          "type": "uint256"
        }
      ],
      "name": "PRBMathSD59x18__MulOverflow",
      "type": "error"
    },
    {
      "inputs": [
        {
          "internalType": "int256",
          "name": "x",
          "type": "int256"
        }
      ],
      "name": "PRBMathSD59x18__SqrtNegativeInput",
      "type": "error"
    },
    {
      "inputs": [
        {
          "internalType": "int256",
          "name": "x",
          "type": "int256"
        }
      ],
      "name": "PRBMathSD59x18__SqrtOverflow",
      "type": "error"
    },
    {
      "inputs": [
        {
          "internalType": "uint256",
          "name": "prod1",
          "type": "uint256"
        }
      ],
      "name": "PRBMath__MulDivFixedPointOverflow",
      "type": "error"
    },
    {
      "inputs": [
        {
          "components": [
            {
              "internalType": "int256",
              "name": "re",
              "type": "int256"
            },
            {
              "internalType": "int256",
              "name": "im",
              "type": "int256"
            }
          ],
          "internalType": "struct Num_Complex.Complex",
          "name": "a",
          "type": "tuple"
        },
        {
          "components": [
            {
              "internalType": "int256",
              "name": "re",
              "type": "int256"
            },
            {
              "internalType": "int256",
              "name": "im",
              "type": "int256"
            }
          ],
          "internalType": "struct Num_Complex.Complex",
          "name": "b",
          "type": "tuple"
        }
      ],
      "name": "add",
      "outputs": [
        {
          "components": [
            {
              "internalType": "int256",
              "name": "re",
              "type": "int256"
            },
            {
              "internalType": "int256",
              "name": "im",
              "type": "int256"
            }
          ],
          "internalType": "struct Num_Complex.Complex",
          "name": "",
          "type": "tuple"
        }
      ],
      "stateMutability": "pure",
      "type": "function"
    },
    {
      "inputs": [
        {
          "internalType": "int256",
          "name": "x",
          "type": "int256"
        }
      ],
      "name": "atan1to1",
      "outputs": [
        {
          "internalType": "int256",
          "name": "",
          "type": "int256"
        }
      ],
      "stateMutability": "pure",
      "type": "function"
    },
    {
      "inputs": [
        {
          "internalType": "int256",
          "name": "y",
          "type": "int256"
        },
        {
          "internalType": "int256",
          "name": "x",
          "type": "int256"
        }
      ],
      "name": "atan2",
      "outputs": [
        {
          "internalType": "int256",
          "name": "T",
          "type": "int256"
        }
      ],
      "stateMutability": "pure",
      "type": "function"
    },
    {
      "inputs": [
        {
          "components": [
            {
              "internalType": "int256",
              "name": "re",
              "type": "int256"
            },
            {
              "internalType": "int256",
              "name": "im",
              "type": "int256"
            }
          ],
          "internalType": "struct Num_Complex.Complex",
          "name": "a",
          "type": "tuple"
        },
        {
          "components": [
            {
              "internalType": "int256",
              "name": "re",
              "type": "int256"
            },
            {
              "internalType": "int256",
              "name": "im",
              "type": "int256"
            }
          ],
          "internalType": "struct Num_Complex.Complex",
          "name": "b",
          "type": "tuple"
        }
      ],
      "name": "div",
      "outputs": [
        {
          "components": [
            {
              "internalType": "int256",
              "name": "re",
              "type": "int256"
            },
            {
              "internalType": "int256",
              "name": "im",
              "type": "int256"
            }
          ],
          "internalType": "struct Num_Complex.Complex",
          "name": "",
          "type": "tuple"
        }
      ],
      "stateMutability": "pure",
      "type": "function"
    },
    {
      "inputs": [
        {
          "components": [
            {
              "internalType": "int256",
              "name": "re",
              "type": "int256"
            },
            {
              "internalType": "int256",
              "name": "im",
              "type": "int256"
            }
          ],
          "internalType": "struct Num_Complex.Complex",
          "name": "a",
          "type": "tuple"
        }
      ],
      "name": "exp",
      "outputs": [
        {
          "components": [
            {
              "internalType": "int256",
              "name": "re",
              "type": "int256"
            },
            {
              "internalType": "int256",
              "name": "im",
              "type": "int256"
            }
          ],
          "internalType": "struct Num_Complex.Complex",
          "name": "",
          "type": "tuple"
        }
      ],
      "stateMutability": "pure",
      "type": "function"
    },
    {
      "inputs": [
        {
          "internalType": "int256",
          "name": "r",
          "type": "int256"
        },
        {
          "internalType": "int256",
          "name": "T",
          "type": "int256"
        }
      ],
      "name": "fromPolar",
      "outputs": [
        {
          "components": [
            {
              "internalType": "int256",
              "name": "re",
              "type": "int256"
            },
            {
              "internalType": "int256",
              "name": "im",
              "type": "int256"
            }
          ],
          "internalType": "struct Num_Complex.Complex",
          "name": "a",
          "type": "tuple"
        }
      ],
      "stateMutability": "pure",
      "type": "function"
    },
    {
      "inputs": [
        {
          "components": [
            {
              "internalType": "int256",
              "name": "re",
              "type": "int256"
            },
            {
              "internalType": "int256",
              "name": "im",
              "type": "int256"
            }
          ],
          "internalType": "struct Num_Complex.Complex",
          "name": "a",
          "type": "tuple"
        }
      ],
      "name": "ln",
      "outputs": [
        {
          "components": [
            {
              "internalType": "int256",
              "name": "re",
              "type": "int256"
            },
            {
              "internalType": "int256",
              "name": "im",
              "type": "int256"
            }
          ],
          "internalType": "struct Num_Complex.Complex",
          "name": "",
          "type": "tuple"
        }
      ],
      "stateMutability": "pure",
      "type": "function"
    },
    {
      "inputs": [
        {
          "components": [
            {
              "internalType": "int256",
              "name": "re",
              "type": "int256"
            },
            {
              "internalType": "int256",
              "name": "im",
              "type": "int256"
            }
          ],
          "internalType": "struct Num_Complex.Complex",
          "name": "a",
          "type": "tuple"
        },
        {
          "components": [
            {
              "internalType": "int256",
              "name": "re",
              "type": "int256"
            },
            {
              "internalType": "int256",
              "name": "im",
              "type": "int256"
            }
          ],
          "internalType": "struct Num_Complex.Complex",
          "name": "b",
          "type": "tuple"
        }
      ],
      "name": "mul",
      "outputs": [
        {
          "components": [
            {
              "internalType": "int256",
              "name": "re",
              "type": "int256"
            },
            {
              "internalType": "int256",
              "name": "im",
              "type": "int256"
            }
          ],
          "internalType": "struct Num_Complex.Complex",
          "name": "",
          "type": "tuple"
        }
      ],
      "stateMutability": "pure",
      "type": "function"
    },
    {
      "inputs": [
        {
          "internalType": "int256",
          "name": "y",
          "type": "int256"
        },
        {
          "internalType": "int256",
          "name": "x",
          "type": "int256"
        }
      ],
      "name": "p_atan2",
      "outputs": [
        {
          "internalType": "int256",
          "name": "T",
          "type": "int256"
        }
      ],
      "stateMutability": "pure",
      "type": "function"
    },
    {
      "inputs": [
        {
          "components": [
            {
              "internalType": "int256",
              "name": "re",
              "type": "int256"
            },
            {
              "internalType": "int256",
              "name": "im",
              "type": "int256"
            }
          ],
          "internalType": "struct Num_Complex.Complex",
          "name": "a",
          "type": "tuple"
        },
        {
          "internalType": "int256",
          "name": "n",
          "type": "int256"
        }
      ],
      "name": "pow",
      "outputs": [
        {
          "components": [
            {
              "internalType": "int256",
              "name": "re",
              "type": "int256"
            },
            {
              "internalType": "int256",
              "name": "im",
              "type": "int256"
            }
          ],
          "internalType": "struct Num_Complex.Complex",
          "name": "",
          "type": "tuple"
        }
      ],
      "stateMutability": "pure",
      "type": "function"
    },
    {
      "inputs": [
        {
          "internalType": "int256",
          "name": "a",
          "type": "int256"
        },
        {
          "internalType": "int256",
          "name": "b",
          "type": "int256"
        }
      ],
      "name": "r2",
      "outputs": [
        {
          "internalType": "int256",
          "name": "",
          "type": "int256"
        }
      ],
      "stateMutability": "pure",
      "type": "function"
    },
    {
      "inputs": [
        {
          "components": [
            {
              "internalType": "int256",
              "name": "re",
              "type": "int256"
            },
            {
              "internalType": "int256",
              "name": "im",
              "type": "int256"
            }
          ],
          "internalType": "struct Num_Complex.Complex",
          "name": "a",
          "type": "tuple"
        }
      ],
      "name": "sqrt",
      "outputs": [
        {
          "components": [
            {
              "internalType": "int256",
              "name": "re",
              "type": "int256"
            },
            {
              "internalType": "int256",
              "name": "im",
              "type": "int256"
            }
          ],
          "internalType": "struct Num_Complex.Complex",
          "name": "",
          "type": "tuple"
        }
      ],
      "stateMutability": "pure",
      "type": "function"
    },
    {
      "inputs": [
        {
          "components": [
            {
              "internalType": "int256",
              "name": "re",
              "type": "int256"
            },
            {
              "internalType": "int256",
              "name": "im",
              "type": "int256"
            }
          ],
          "internalType": "struct Num_Complex.Complex",
          "name": "a",
          "type": "tuple"
        },
        {
          "components": [
            {
              "internalType": "int256",
              "name": "re",
              "type": "int256"
            },
            {
              "internalType": "int256",
              "name": "im",
              "type": "int256"
            }
          ],
          "internalType": "struct Num_Complex.Complex",
          "name": "b",
          "type": "tuple"
        }
      ],
      "name": "sub",
      "outputs": [
        {
          "components": [
            {
              "internalType": "int256",
              "name": "re",
              "type": "int256"
            },
            {
              "internalType": "int256",
              "name": "im",
              "type": "int256"
            }
          ],
          "internalType": "struct Num_Complex.Complex",
          "name": "",
          "type": "tuple"
        }
      ],
      "stateMutability": "pure",
      "type": "function"
    },
    {
      "inputs": [
        {
          "components": [
            {
              "internalType": "int256",
              "name": "re",
              "type": "int256"
            },
            {
              "internalType": "int256",
              "name": "im",
              "type": "int256"
            }
          ],
          "internalType": "struct Num_Complex.Complex",
          "name": "a",
          "type": "tuple"
        }
      ],
      "name": "toPolar",
      "outputs": [
        {
          "internalType": "int256",
          "name": "",
          "type": "int256"
        },
        {
          "internalType": "int256",
          "name": "",
          "type": "int256"
        }
      ],
      "stateMutability": "pure",
      "type": "function"
    },
    {
      "inputs": [
        {
          "components": [
            {
              "internalType": "int256",
              "name": "re",
              "type": "int256"
            },
            {
              "internalType": "int256",
              "name": "im",
              "type": "int256"
            }
          ],
          "internalType": "struct Num_Complex.Complex",
          "name": "a",
          "type": "tuple"
        }
      ],
      "name": "unwrap",
      "outputs": [
        {
          "internalType": "int256",
          "name": "",
          "type": "int256"
        },
        {
          "internalType": "int256",
          "name": "",
          "type": "int256"
        }
      ],
      "stateMutability": "pure",
      "type": "function"
    },
    {
      "inputs": [
        {
          "internalType": "int256",
          "name": "re",
          "type": "int256"
        },
        {
          "internalType": "int256",
          "name": "im",
          "type": "int256"
        }
      ],
      "name": "wrap",
      "outputs": [
        {
          "components": [
            {
              "internalType": "int256",
              "name": "re",
              "type": "int256"
            },
            {
              "internalType": "int256",
              "name": "im",
              "type": "int256"
            }
          ],
          "internalType": "struct Num_Complex.Complex",
          "name": "",
          "type": "tuple"
        }
      ],
      "stateMutability": "pure",
      "type": "function"
    }
  ],
  "bytecode": {
    "object": "0x60808060405234610016576121b2908161001b8239f35b5f80fdfe60806040526004361015610011575f80fd5b5f3560e01c8063039492b3146101145780631ed0a7bf1461010f57806321236b9e1461010a5780632b5f0c25146101055780633dfcdd0a1461010057806364b5c441146100fb578063a18b3b42146100f6578063a31f4651146100f1578063a5bb77e8146100ec578063b4ce66db146100e7578063c9673bf6146100e2578063ccec6d71146100dd578063cd92e9af146100d8578063ec123be8146100d3578063ee8e6044146100ce5763f87f472b146100c9575f80fd5b610863565b61076e565b6106bc565b610666565b6105a4565b610575565b610554565b610517565b610471565b61038d565b610348565b610309565b610294565b61021b565b6101e3565b3461013d57604036600319011261013d576020610135602435600435610cd1565b604051908152f35b5f80fd5b634e487b7160e01b5f52604160045260245ffd5b604051906040820182811067ffffffffffffffff82111761017557604052565b610141565b60405190610440820182811067ffffffffffffffff82111761017557604052565b604090600319011261013d576101af610155565b9060043582526024356020830152565b604090604319011261013d576101d3610155565b9060443582526064356020830152565b3461013d57604036600319011261013d576102056102003661019b565b610bb9565b60408051928352602083019190915290f35b0390f35b3461013d57604036600319011261013d576102176102383661019b565b5f6020610243610155565b82815201526714057b7ef767814f670de0b6b3a764000061027361026684610bb9565b6020860152808552611ca4565b02058152604051918291829190916020806040830194805184520151910152565b3461013d57608036600319011261013d576102176102b13661019b565b60206102bc366101bf565b5f826102c6610155565b82815201526102d78151845161096b565b835201516102ea6020830191825161096b565b9052604051918291829190916020806040830194805184520151910152565b3461013d57604036600319011261013d5761021761032b602435600435610c32565b604051918291829190916020806040830194805184520151910152565b3461013d57604036600319011261013d5761021761032b6103683661019b565b5f6020610373610155565b82815201526020610384825161142d565b91015190610c32565b3461013d57606036600319011261013d576102176103aa3661019b565b6104336103f96044355f60206103be610155565b828152015261042d6104076103f9836103d688610bb9565b9190806104575750505f85155f146104525750670de0b6b3a76400005b946109ff565b670de0b6b3a7640000900590565b6104266103f96104206715cc96efd11924eb8401611369565b856109ff565b8652611369565b906109ff565b6020828101918252604080519351845291519083015290918291820190565b6103f3565b6103f39161046761046c92611ca4565b611eb0565b61148e565b3461013d57602036600319011261013d57600435670ae4e15744ae8000818102908105820361051257670de0b6b3a763ffff198201600183821316610512576103f96104c36103f96104c993866109ff565b93610983565b9081670365595a8089c0000191821260011661051257670de0b6b3a76400006104fb6103f961050294610217966109ff565b910561096b565b6040519081529081906020820190565b6108cd565b3461013d57604036600319011261013d57602061013561054f60243561054961054260043580611eb0565b9180611eb0565b90610927565b611fdf565b3461013d57604036600319011261013d576020610135602435600435610da0565b3461013d57604036600319011261013d5761058f3661019b565b80516020918201516040805192835292820152f35b3461013d57608036600319011261013d576102176105c13661019b565b6105ca366101bf565b5f60206105d5610155565b8281520152670de0b6b3a76400006106376105f384518451906109ff565b602085019361063085519161062a61061f61061460208401958651906109ff565b9289519051906109ff565b9389519051906109ff565b9361096b565b8652610927565b8351670de0b6b3a764000090058452059052604051918291829190916020806040830194805184520151910152565b3461013d57604036600319011261013d575f6020610682610155565b8281520152610217610692610155565b60043581526024356020820152604051918291829190916020806040830194805184520151910152565b3461013d57608036600319011261013d576102176106d93661019b565b6106e2366101bf565b6106ea6108b9565b506102ea6106fb83518351906109ff565b916107626020850161076761071c82519661054960208701988951906109ff565b9161076261075c61074961073d6107338951610a54565b6105498c51610a54565b978894519051906109ff565b6107568b518b51906109ff565b9061096b565b9361099a565b610a35565b865261099a565b3461013d57604036600319011261013d5761021761078b3661019b565b6107936108b9565b50602081015161080c5780515f8113156107d157506107b28151611fdf565b8152604051918291829190916020806040830194805184520151910152565b6107dd6107e291611fdf565b610c22565b60208201818152905f8113156107fc5750505f815261032b565b61080590610c22565b905261032b565b8051610843576020810161082d61054f6108268351611403565b6002900590565b8083525f8113156107fc5750815190525b61032b565b61085b600261085461083e93610bb9565b9290611fdf565b910590610c32565b3461013d57608036600319011261013d576102176108803661019b565b602061088b366101bf565b5f82610895610155565b82815201526108a681518451610927565b835201516102ea60208301918251610927565b6108c1610155565b905f82525f6020830152565b634e487b7160e01b5f52601160045260245ffd5b90670ae64b77e88c9285915f838201938412911290801582169115161761051257565b906720b2e267b9a5b78f915f838201938412911290801582169115161761051257565b9190915f838201938412911290801582169115161761051257565b906e97431e7f891fcd335f8b7cfef400005f838203931281841281169184139015161761051257565b81810392915f13801582851316918412161761051257565b9066eb8b7fac9bc000918083029283050361051257565b90670de0b6b3a76400009182810292818405149015171561051257565b90670ae64b77e88c9285918083029283050361051257565b906702b965cf5968c000918083029283050361051257565b90670d9fb2f2e0004000918083029283050361051257565b81810292915f8212600160ff1b82141661051257818405149015171561051257565b634e487b7160e01b5f52601260045260245ffd5b8115610a4f57600160ff1b81145f19831416610512570590565b610a21565b8015610b03575f811380600114610aeb5715610ad4575b80026001805b60018111610aa557505f81136001600160ff1b03839004821116610512575f8112600160ff1b839005821216610512570290565b916001600160ff1b0381900481116105125760018316610acb575b80029160011c610a71565b80910290610ac0565b6001600160ff1b03819005811215610a6b576108cd565b506001600160ff1b03819004811115610a6b576108cd565b505f90565b8015610b03575f811380600114610ba15715610b8a575b808002906001805b808211610b5b5750505f81136001600160ff1b03839004821116610512575f8112600160ff1b839005821216610512570290565b90926001600160ff1b03819004811161051257818416610b81575b800292811c90610b27565b80920291610b76565b6001600160ff1b03819005811215610b1f576108cd565b506001600160ff1b03819004811115610b1f576108cd565b908151610bd661054f602085019261054961054285519280611eb0565b925f841315610bef57610bec9151905190610da0565b90565b610bfc9151905190610da0565b916809c2007651b2500000925f8482019485129112908015821691151617610512579190565b600160ff1b8114610512575f0390565b610c3a610155565b915f835260208301915f83525f82135f14610c8557610c7f9061042d670de0b6b3a76400009384610c776104206715cc96efd11924eb8401611369565b058752611369565b05905290565b670de0b6b3a76400009182610cac610ca66715cc96efd11924eb8401611369565b846109ff565b058552805f03908082055f19149015171561051257610c7f9161042d6107dd92611369565b90610cdb82611403565b6305f5e100905f8282019283129112908015821691151617610512575f8212610d49576103f9610d33610d2e84610d2885610d22610d1d610d38985f9a61096b565b61099a565b92610927565b90610a35565b6109b7565b610942565b915b1215610bec57610bec90610c22565b80610d2883610d61610d1d610d2e95610d6797610927565b9261096b565b6f01c5c95b7e9b5f679a1ea276fcdc00005f828203921281831281169183139015161761051257670de0b6b3a76400005f910591610d3a565b90610daa82611403565b906305f5e100915f8382019384129112908015821691151617610512575f91828212610e2d57610deb82610d2883610d22610d1d610e2896610d389861096b565b6107566103f9610e22610e05610e0085610b08565b6109cf565b760a70c3c40a64e6c51999090b65f67d9240000000000000900590565b926109e7565b6108e1565b610deb81610d2884610d61610d1d610e4896610e4d98610927565b610904565b91610d3a565b8115610a4f570490565b610e6561017a565b61040481527ac90f8801921d20025b26d703242abf03ed26e604b6195d057f003560208201527f0647d97c0710a34507d95b9e08a2009a096a90490a3308bc0afb68050bc3ac3560408201527f0c8bd35e0d53db920e1bc2e40ee387660fab272b1072a0481139f0cf120116d560608201527f12c8106e138edbb1145576b1151bdf8515e2144416a81305176dd9de183366e860808201527f18f8b83c19bdcbf31a82a0251b4732ef1c0b826a1ccf8cb31d934fe51e56ca1e60a08201527f1f19f97b1fdcdc1b209f701c2161b39f2223a4c522e541af23a6887e2467775760c08201527f25280c5d25e845b626a8218527679df42826b92828e5714a29a3c4852a61b10160e08201527f2b1f34eb2bdc4e6f2c98fbba2d553afb2e110a622ecc681e2f8752623041c7606101008201527f30fbc54d31b54a5d326e54c73326e2c233def2873496824f354d905636041ad96101208201527f36ba2013376f9e46382493b038d8fe93398cdd323a402dd13af2eeb73ba51e296101408201527f3c56ba703d07c1d53db832a53e680b2c3f1749b73fc5ec974073f21d4121589a6101608201527f41ce1e64427a41d04325c13543d09aec447acd50452456bc45cd358f467568276101808201527f471cece647c3c22e4869e664490f57ee49b415334a581c9d4afb6c974b9e038f6101a08201527f4c3fdff34ce100344d8162c34e2106174ebfe8a44f5e08e24ffb654c5097fc5e6101c08201527f5133cc9451ced46e5269126e53028517539b2aef5433027d54ca0a4a556040e26101e08201527f55f5a4d2568a34a9571deef957b0d2555842dd5458d40e8c5964649759f3de126102008201527f5a8279995b1035ce5b9d11535c290acc5cb420df5d3e52365dc79d7b5e50015d6102208201527f5ed77c895f5e0db25fe3b38d60686cce60ec382f616f146b61f1003e6271fa686102408201527f62f201ac637114cc63ef328f646c59bf64e889256563bf9165ddfbd266573cbb6102608201527f66cf811f6746c7d767bd0fbc683257aa68a69e806919e31f698c246b69fd614a6102808201527f6a6d98a36adcc9646b4af2786bb812d06c24295f6c8f351b6cf934fb6d6227f96102a08201527f6dca0d146e30e3496e96a99c6efb5f116f5f02b16fc1938470231099708378fe6102c08201527f70e2cbc571410804719e2cd171fa394872552c8472af05a67307c3cf735f66256102e08201527f73b5ebd0740b53fa745f9dd074b2c8837504d3447555bd4b75a585ce75f42c0a6103008201527f7641af3c768e0ea576d9498877235f2c776c4eda77b417df77fab988784033286103208201527f7884841378c7aba17909a92c794a7c11798a23b079c89f6d7a05eeac7a4210d86103408201527f7a7d055a7ab6cba37aef63237b26cb4e7b5d039d7b920b887bc5e28f7bf8882f6103608201527f7c29fbed7c5a3d4f7c894bdd7cb727237ce3ceb17d0f42177d3980eb7d628ac56103808201527f7d8a5f3f7db0fdf77dd6668e7dfa98a77e1d93e97e3f57fe7e5fe4927e7f39566103a08201527f7e9d55fb7eba3a387ed5e5c57ef0585f7f0991c37f2191b37f3857f57f4de4506103c08201527f7f62368e7f754e7f7f872bf27f97cebc7fa736b37fb563b27fc255957fce0c3d6103e08201527f7fd8878d7fe1c76a7fe9cbbf7ff094777ff621817ffa72d07ffd88597fff6215610400820152637fffffff60e01b61042082015290565b8015610a4f576ec097ce7bc90715b34b9f10000000000590565b670de0b6b3a7640000637fffffff916757325bbf446493ac809106601e1b0460ff8160141c1663100000008216159081156113fb575b60026113a9610e5d565b910160021b015163ffffffff808260201c16911661ffff8460041c168282030260101c925f146113f35750015b63200000008192166113e9575b50020590565b90505f035f6113e3565b9050036113d6565b60ff0361139f565b600160ff1b811461141b575f811215610bec575f0390565b604051631d0742e360e21b8152600490fd5b68023f2fa8f6da5b9d31198112610b0357680736ea4425c11ac63181121561147657670de0b6b3a76400006706f05b59d3b200006714057b7ef767814f610bec9302010561148e565b602490604051906399bb754160e01b82526004820152fd5b5f8112156114bb5768033dd1780914b97114198112610b03576114b2905f0361148e565b610bec9061134f565b680a688906bd8b000000811215611c8c57670de0b6b3a764000080604092831b0490600160bf1b6780000000000000008316611c79575b6740000000000000008316611c67575b6720000000000000008316611c55575b6710000000000000008316611c43575b6708000000000000008316611c31575b6704000000000000008316611c1f575b6702000000000000008316611c0d575b6701000000000000008316611bfb575b66800000000000008316611be9575b66400000000000008316611bd7575b66200000000000008316611bc5575b66100000000000008316611bb3575b66080000000000008316611ba1575b66040000000000008316611b8f575b66020000000000008316611b7d575b66010000000000008316611b6b575b658000000000008316611b59575b654000000000008316611b47575b652000000000008316611b35575b651000000000008316611b23575b650800000000008316611b11575b650400000000008316611aff575b650200000000008316611aed575b650100000000008316611adb575b6480000000008316611ac9575b6440000000008316611ab7575b6420000000008316611aa5575b6410000000008316611a93575b6408000000008316611a81575b6404000000008316611a6f575b6402000000008316611a5d575b6401000000008316611a4b575b63800000008316611a39575b63400000008316611a27575b63200000008316611a15575b63100000008316611a03575b630800000083166119f1575b630400000083166119df575b630200000083166119cd575b630100000083166119bb575b6280000083166119a9575b624000008316611997575b622000008316611985575b621000008316611973575b620800008316611961575b62040000831661194f575b62020000831661193d575b62010000831661192b575b6180008316611919575b6140008316611907575b61200083166118f5575b61100083166118e3575b61080083166118d1575b61040083166118bf575b61020083166118ad575b610100831661189b575b60808316611889575b838316611877575b60208316611865575b60108316611853575b60088316611841575b6004831661182f575b6002831661181d575b6001831661180b575b02911c60bf031c90565b6801000000000000000102831c611801565b6801000000000000000102831c6117f8565b6801000000000000000302831c6117ef565b6801000000000000000602831c6117e6565b6801000000000000000b02831c6117dd565b6801000000000000001602831c6117d4565b6801000000000000002c02831c6117cb565b6801000000000000005902831c6117c3565b680100000000000000b102831c6117ba565b6801000000000000016302831c6117b0565b680100000000000002c602831c6117a6565b6801000000000000058c02831c61179c565b68010000000000000b1702831c611792565b6801000000000000162e02831c611788565b68010000000000002c5d02831c61177e565b680100000000000058b902831c611774565b6801000000000000b17202831c61176a565b680100000000000162e402831c61175f565b6801000000000002c5c802831c611754565b68010000000000058b9102831c611749565b680100000000000b172102831c61173e565b68010000000000162e4302831c611733565b680100000000002c5c8602831c611728565b6801000000000058b90c02831c61171d565b68010000000000b1721802831c611712565b6801000000000162e43002831c611706565b68010000000002c5c86002831c6116fa565b680100000000058b90c002831c6116ee565b6801000000000b17217f02831c6116e2565b680100000000162e42ff02831c6116d6565b6801000000002c5c85fe02831c6116ca565b68010000000058b90bfc02831c6116be565b680100000000b17217f802831c6116b2565b68010000000162e42ff102831c6116a5565b680100000002c5c85fe302831c611698565b6801000000058b90bfce02831c61168b565b68010000000b17217fbb02831c61167e565b6801000000162e42fff002831c611671565b68010000002c5c8601cc02831c611664565b680100000058b90c0b4902831c611657565b6801000000b17218355102831c61164a565b680100000162e430e5a202831c61163c565b6801000002c5c863b73f02831c61162e565b68010000058b90cf1e6e02831c611620565b680100000b1721bcfc9a02831c611612565b68010000162e43f4f83102831c611604565b680100002c5c89d5ec6d02831c6115f6565b6801000058b91b5bc9ae02831c6115e8565b68010000b17255775c0402831c6115da565b6801000162e525ee054702831c6115cb565b68010002c5cc37da949202831c6115bc565b680100058ba01fb9f96d02831c6115ad565b6801000b175effdc76ba02831c61159e565b680100162f3904051fa102831c61158f565b6801002c605e2e8cec5002831c611580565b68010058c86da1c09ea202831c611571565b680100b1afa5abcbed6102831c611562565b68010163da9fb33356d802831c611552565b680102c9a3e778060ee702831c611542565b6801059b0d31585743ae02831c611532565b68010b5586cf9890f62a02831c611522565b6801172b83c7d517adce02831c611512565b6801306fe0a31b7152df02831c611502565b5068016a09e667f3bcc909607f1b6114f2565b6024906040519063e69458f960e01b82526004820152fd5b5f9081811315611d4d57670de0b6b3a764000091828212611d30576001925b611cce818405611dc9565b81810293811d90828214611d2557506706f05b59d3b20000905b838213611cf757505050500290565b808391020590671bc16d674ec80000821215611d17575b60011d90611ce8565b809194019360011d90611d0e565b925050929150020290565b5f19926ec097ce7bc90715b34b9f10000000009290920491611cc3565b60405163309fa7dd60e11b81526004810191909152602490fd5b906040820180921161051257565b906020820180921161051257565b906010820180921161051257565b906008820180921161051257565b906004820180921161051257565b906002820180921161051257565b906001820180921161051257565b5f9190600160801b811015611ea5575b80600160401b6002921015611e92575b640100000000811015611e7f575b62010000811015611e6c575b610100811015611e59575b6010811015611e46575b6004811015611e34575b1015611e2a57565b90610bec90611dbb565b611e4090821c93611dad565b92611e22565b611e539060041c93611d9f565b92611e18565b611e669060081c93611d91565b92611e0e565b611e799060101c93611d83565b92611e03565b611e8c9060201c93611d75565b92611df7565b611e9f9060401c93611d67565b92611de9565b60809250821c611dd9565b600160ff1b818114908115611f43575b50611f31575f811215611f2857611ee5815f035b5f841215611f2157835f0390611f4d565b916001600160ff1b038311611f08575f19918212911218600103610bec575f0390565b60405163bf79e8d960e01b815260048101849052602490fd5b8390611f4d565b611ee581611ed4565b604051630d01a11b60e21b8152600490fd5b905082145f611ec0565b5f19828209828202908180821091039381850390670de0b6b3a76400009485831015611fc65790859109916706f05b59d3b1ffff83119514611fbf577faccb18165bd6fe31ae1cf318dc5b51eee0e1ba569b88cd74c1773b91fac106699350828211900360ee1b910360121c17020190565b5050040190565b60405163698d9a0160e11b815260048101849052602490fd5b5f8112612031577809392ee8e921d5d073aff322e62439fcf32d7f344649470f90811361201957670de0b6b3a7640000610bec9102612049565b60249060405190632c482c3960e01b82526004820152fd5b6024906040519063608c83ff60e11b82526004820152fd5b8015610b0357600181600160801b81101561216a575b6121016120f76120ed6120e36120d96120cf61211297600488600160401b61210b9a101561215d575b640100000000811015612150575b62010000811015612143575b610100811015612137575b601081101561212b575b1015612123575b6120c8818b610e53565b0160011c90565b6120c8818a610e53565b6120c88189610e53565b6120c88188610e53565b6120c88187610e53565b6120c88186610e53565b6120c88185610e53565b8092610e53565b9081811061211e575090565b905090565b60011b6120be565b811c9160021b916120b7565b60081c91811b916120ad565b60101c9160081b916120a2565b60201c9160101b91612096565b60401c9160201b91612088565b50600160401b9050608082901c61205f56fea26469706673582212203f1949c239db5870f4c89837ccb0e5840b721102380bdd5ad8a655f9c1cffd6564736f6c63430008140033",
    "linkReferences": {}
  },
  "methodIdentifiers": {
    "add((int256,int256),(int256,int256))": "f87f472b",
    "atan1to1(int256)": "a31f4651",
    "atan2(int256,int256)": "039492b3",
    "div((int256,int256),(int256,int256))": "ec123be8",
    "exp((int256,int256))": "64b5c441",
    "fromPolar(int256,int256)": "3dfcdd0a",
    "ln((int256,int256))": "21236b9e",
    "mul((int256,int256),(int256,int256))": "ccec6d71",
    "p_atan2(int256,int256)": "b4ce66db",
    "pow((int256,int256),int256)": "a18b3b42",
    "r2(int256,int256)": "a5bb77e8",
    "sqrt((int256,int256))": "ee8e6044",
    "sub((int256,int256),(int256,int256))": "2b5f0c25",
    "toPolar((int256,int256))": "1ed0a7bf",
    "unwrap((int256,int256))": "c9673bf6",
    "wrap(int256,int256)": "cd92e9af"
  },
  "id": 13
}