{
  "abi": [
    {
      "inputs": [
        {
          "internalType": "uint256",
          "name": "salt",
          "type": "uint256"
        }
      ],
      "name": "get_config_with_create_2",
      "outputs": [
        {
          "internalType": "address",
          "name": "",
          "type": "address"
        }
      ],
      "stateMutability": "view",
      "type": "function"
    }
  ],
  "bytecode": {
    "object": "0x6080806040523461001c57612941908161002182393081600a0152f35b5f80fdfe6080604090808252307f000000000000000000000000000000000000000000000000000000000000000014916004928336101561003a575f80fd5b5f92833560e01c90816301f9ad9c1461019d5750806325d1b803146100db576379502c5514610067575f80fd5b6100d757816003193601126100d75780516126ff8082019082821067ffffffffffffffff8311176100c45790829161020d8339039083f09081156100b957516001600160a01b03909116815260209150f35b51913d9150823e3d90fd5b634e487b7160e01b855260418652602485fd5b5080fd5b505090602060031936011261019a57815167ffffffffffffffff92906126ff90603f8201601f1916810185811182821017610187578352818152602081019161020d833951902090805192602084019260ff60f81b84523060601b6021860152863560358601526055850152605584526080840194848610908611176101745750839052905190206001600160a01b0316815260209150f35b634e487b7160e01b815260418652602490fd5b634e487b7160e01b855260418752602485fd5b80fd5b90508491610208576020366003190112610208576126ff918282019282841067ffffffffffffffff8511176101f55790829161020d83393592039084f59081156100b957516001600160a01b03909116815260209150f35b634e487b7160e01b865260418252602486fd5b8380fdfe6080806040523461002857600380546001600160a01b031916301790556126d2908161002d8239f35b5f80fdfe60806040526004361015610011575f80fd5b5f3560e01c80630c7d16811461018f5780630cc766161461018a5780631a8f1a1c14610185578063220481ef146101805780632232d9081461017b57806324c12bf61461017657806328764d141461017157806339614e4f1461016c5780633a768463146101675780633fa4f245146101625780634e9b75b61461015d57806368f192f2146101585780636b07af10146101265780636fcef9d5146101535780637dc2225f1461014e5780638093a1b91461014957806392bb10d714610144578063c5effd021461013f578063c76023161461013a578063d5f3948814610135578063dd1ec82414610130578063df9f3dee1461012b578063e5df3076146101265763e9e68e1d14610121575f80fd5b610d59565b610a5b565b610d17565b610cfc565b610cd4565b610c0f565b610bf5565b610bad565b610b61565b610b40565b610acc565b610a40565b6109af565b610992565b610964565b61094b565b61087a565b610774565b61066d565b61065e565b610575565b610545565b61042e565b634e487b7160e01b5f52603260045260245ffd5b6005548110156101e05760055f5260011b7f036b6384b5eca791c62761152d0c79bb0604c104a5fb6f4eb0703f3154bb3db001905f90565b610194565b90600182811c92168015610213575b60208310146101ff57565b634e487b7160e01b5f52602260045260245ffd5b91607f16916101f4565b634e487b7160e01b5f52604160045260245ffd5b604081019081106001600160401b0382111761024c57604052565b61021d565b6001600160401b03811161024c57604052565b606081019081106001600160401b0382111761024c57604052565b90601f801991011681019081106001600160401b0382111761024c57604052565b604051905f82600454916102b3836101e5565b8083529260019081811690811561032757506001146102dc575b506102da9250038361027f565b565b60045f90815291505f8051602061267d8339815191525b84831061030c57506102da93505081016020015f6102cd565b81935090816020925483858a010152019101909185926102f3565b9050602092506102da94915060ff191682840152151560051b8201015f6102cd565b9060405191825f82549261035c846101e5565b9081845260019485811690815f146103c55750600114610385575b50506102da9250038361027f565b909391505f52602090815f20935f915b8183106103ad5750506102da93508201015f80610377565b85548884018501529485019487945091830191610395565b9150506102da94506020925060ff191682840152151560051b8201015f80610377565b5f5b8381106103f95750505f910152565b81810151838201526020016103ea565b90602091610422815180928185528580860191016103e8565b601f01601f1916010190565b346104975760203660031901126104975760043560055481101561049757610458610485916101a8565b50610493610471600161046a84610349565b9301610349565b604051938493604085526040850190610409565b908382036020850152610409565b0390f35b5f80fd5b6001600160401b03811161024c57601f01601f191660200190565b9291926104c28261049b565b916104d0604051938461027f565b829481845281830111610497578281602093845f960137010152565b9080601f8301121561049757816020610507933591016104b6565b90565b602060031982011261049757600435906001600160401b03821161049757610507916004016104ec565b906020610507928181520190610409565b61049361056161055c6105573661050a565b611bf4565b612521565b604051918291602083526020830190610409565b34610497576105833661050a565b80516001600160401b03811161024c576105a7816105a26004546101e5565b610d94565b602080601f83116001146105ea575081925f926105df575b50508160011b915f199060031b1c1916176004555b604051308152602090f35b015190505f806105bf565b90601f1983169361060960045f525f8051602061267d83398151915290565b925f905b868210610646575050836001951061062e575b505050811b016004556105d4565b01515f1960f88460031b161c191690555f8080610620565b8060018596829496860151815501950193019061060d565b6104936105616105573661050a565b346104975761067b3661050a565b80516001600160401b03811161024c575f906106a08161069b84546101e5565b610de1565b602080601f83116001146106e4575082938293926106d9575b50505f19600383901b1c191660019190911b179055604051308152602090f35b015190505f806106b9565b90601f198316946107025f80525f8051602061263d83398151915290565b9285905b87821061073f575050836001959610610727575b505050811b0190556105d4565b01515f1960f88460031b161c191690555f808061071a565b80600185968294968601518155019501930190610706565b5f91031261049757565b634e487b7160e01b5f525f60045260245ffd5b34610497575f8060031936011261083c5760405190808054610795816101e5565b8085529160019180831690811561081257506001146107cb575b610493856107bf8187038261027f565b60405191829182610534565b80809450525f8051602061263d8339815191525b8284106107fa5750505081016020016107bf826104936107af565b805460208587018101919091529093019281016107df565b869550610493969350602092506107bf94915060ff191682840152151560051b82010192936107af565b80fd5b602060031982011261049757600435906001600160401b038211610497578060238301121561049757816024610507936004013591016104b6565b34610497576108883661083f565b80516001600160401b03811161024c576001906108ae816108a984546101e5565b610e22565b602080601f83116001146108f357508192935f926108e8575b50505f19600383901b1c191690821b17905560405130815280602081010390f35b015190505f806108c7565b90601f1983169461091260015f525f8051602061265d83398151915290565b925f905b8782106109345750508385961061072757505050811b0190556105d4565b808785968294968601518155019501930190610916565b346104975761049361056161095f3661083f565b6115a8565b34610497575f366003190112610497576020604051737109709ecfa91a80626ff3989d68f67f5b1dd12d8152f35b34610497575f366003190112610497576020600254604051908152f35b34610497575f8060031936011261083c57604051908060018054916109d3836101e5565b8086529282811690811561081257506001146109f957610493856107bf8187038261027f565b92508083525f8051602061265d8339815191525b828410610a285750505081016020016107bf826104936107af565b80546020858701810191909152909301928101610a0d565b34610497575f366003190112610497576104936105616102a0565b34610497576040366003190112610497576004356001600160401b03811161049757610a8e610ac29136906004016104ec565b610aa960405160243560208201526020815261095f81610231565b60405191610ab683610231565b82526020820152610f64565b6020604051308152f35b34610497576040366003190112610497576004356001600160401b03811161049757610afc9036906004016104ec565b602435906001600160a01b038216820361049757610aa96105d492604051906bffffffffffffffffffffffff199060601b1660208201526014815261095f81610231565b34610497576020366003190112610497576004356002556020604051308152f35b34610497576040366003190112610497576001600160401b0360043581811161049757610b929036906004016104ec565b60243591821161049757610aa9610ac29236906004016104ec565b34610497576020366003190112610497576004356001600160a01b03811690819003610497576bffffffffffffffffffffffff60a01b60035416176003556020604051308152f35b34610497575f36600319011261049757610c0d61139d565b005b610c1e61055c6105573661050a565b60035460a01c60ff16610c69575b6104939060025460208251920190f0610c4f6001600160a01b03821615156125e1565b6040516001600160a01b0390911681529081906020820190565b737109709ecfa91a80626ff3989d68f67f5b1dd12d90813b15610497575f80926004604051809581936302bf260160e61b83525af1918215610ccf5761049392610cb6575b509050610c2c565b80610cc3610cc992610251565b80610757565b5f610cae565b6112eb565b34610497575f366003190112610497576003546040516001600160a01b039091168152602090f35b34610497575f366003190112610497576104936105616116b5565b3461049757602036600319011261049757600435801515809103610497576003549060ff60a01b9060a01b169060ff60a01b1916176003556020604051308152f35b34610497575f36600319011261049757602060ff60035460a01c166040519015158152f35b818110610d89575050565b5f8155600101610d7e565b90601f8211610da1575050565b6102da9160045f525f8051602061267d833981519152906020601f840160051c83019310610dd7575b601f0160051c0190610d7e565b9091508190610dca565b90601f8211610dee575050565b6102da915f80525f8051602061263d833981519152906020601f840160051c83019310610dd757601f0160051c0190610d7e565b90601f8211610e2f575050565b6102da9160015f525f8051602061265d833981519152906020601f840160051c83019310610dd757601f0160051c0190610d7e565b9190601f8111610e7357505050565b6102da925f5260205f20906020601f840160051c83019310610dd757601f0160051c0190610d7e565b91909182516001600160401b03811161024c57610ec381610ebd84546101e5565b84610e64565b602080601f8311600114610efd5750819293945f92610ef2575b50508160011b915f199060031b1c1916179055565b015190505f80610edd565b90601f19831695610f11855f5260205f2090565b925f905b888210610f4c57505083600195969710610f34575b505050811b019055565b01515f1960f88460031b161c191690555f8080610f2a565b80600185968294968601518155019501930190610f15565b906005546801000000000000000081101561024c57610f8a6001918281016005556101a8565b9190916110685783518051946001600160401b03861161024c57610fb886610fb286546101e5565b86610e64565b6020918290601f8811600114610ffe579680916102da97985f92610ff3575b50505f19600383901b1c191690841b1784555b01519101610e9c565b015190505f80610fd7565b90601f19881691611012875f5260205f2090565b925f5b8181106110535750918693918a6102da9a9b941061103b575b505050811b018455610fea565b01515f1960f88460031b161c191690555f808061102e565b82840151855593870193928601928601611015565b610761565b6001600160401b03811161024c5760051b60200190565b60405161109081610231565b60018152805f5b6020808210156110b257906060602092828501015201611097565b50505090565b60405190608082018281106001600160401b0382111761024c576040526003825281905f5b6060808210156110f75790602091828287010152016110dd565b5050909150565b6040519060c082018281106001600160401b0382111761024c5760405260058252815f5b60a0811061112e575050565b806060602080938501015201611122565b60409081519161114e83610264565b60028352825f5b82811061116157505050565b806060602080938501015201611155565b9061117c8261106d565b611189604051918261027f565b828152809261119a601f199161106d565b01905f5b8281106111aa57505050565b80606060208093850101520161119e565b8051156101e05760200190565b8051600110156101e05760400190565b8051600210156101e05760600190565b8051600510156101e05760c00190565b8051600310156101e05760800190565b8051600410156101e05760a00190565b80518210156101e05760209160051b010190565b602081830312610497578051906001600160401b038211610497570181601f8201121561049757805161125e8161049b565b9261126c604051948561027f565b818452602082840101116104975761050791602080850191016103e8565b602080820190808352835180925260408301928160408460051b8301019501935f915b8483106112bd5750505050505090565b90919293949584806112db600193603f198682030187528a51610409565b98019301930191949392906112ad565b6040513d5f823e3d90fd5b8051600110156101e05760210190565b9081518110156101e0570160200190565b1561131e57565b60405162461bcd60e51b815260206004820152604b60248201527f496e76616c69642068756666632062696e6172792e2052756e20606375726c2060448201527f2d4c206765742e687566662e7368207c20626173686020616e6420606875666660648201526a3ab830103a37903334bc1760a91b608482015260a490fd5b6114205f6113a9611084565b6040516113b581610264565b602a81527f2e2f6c69622f666f756e6472792d687566662f736372697074732f62696e61726020820152690f2bec6d0cac6d65ce6d60b31b60408201526113fb826111bb565b52611405816111bb565b5060405180938192638916046760e01b83526004830161128a565b038183737109709ecfa91a80626ff3989d68f67f5b1dd12d5af18015610ccf576102da915f9161148f575b50600160f81b906001600160c01b0319906114889061147b9061146d906111bb565b516001600160f81b03191690565b6001600160f81b03191690565b1614611317565b6114aa913d8091833e6114a2818361027f565b81019061122c565b5f61144b565b604051906114bd82610231565b601082526f181899199a1a9b1b9c1cb0b131b232b360811b6020830152565b634e487b7160e01b5f52601160045260245ffd5b908160011b918083046002149015171561150657565b6114dc565b600381901b91906001600160fd1b0381160361150657565b600201908160021161150657565b600301908160031161150657565b906001820180921161150657565b600601908160061161150657565b9190820180921161150657565b906115728261049b565b61157f604051918261027f565b8281528092611590601f199161049b565b0190602036910137565b5f1981146115065760010190565b906115b16114b0565b6115cb6115c66115c185516114f0565b611523565b611568565b9060306115d7836111bb565b5360786115e3836112f6565b535f93845b815181101561168b578061162f61146d61162961162361161d61161161146d611686988a611306565b60041c600f60f81b1690565b60f81c90565b60ff1690565b86611306565b61164861163e6115c1846114f0565b91891a9187611306565b5361166c61146d611629611623600f60f81b61166584878a611306565b1660f81c90565b61168061163e61167b846114f0565b611531565b5361159a565b6115e8565b509193505050565b6020815191015190602081106116a7575090565b5f199060200360031b1b1690565b604051905f916004546116c7816101e5565b90600190818116908115611774575060011461172d575b50506116f7816116fc939403601f19810183528261027f565b611693565b15611709576105076102a0565b60405161171581610231565b60088152677368616e6768616960c01b602082015290565b60045f9081529194505f8051602061267d8339815191525b85831061175f57505050918201602001916116f7816116de565b81816020925483868801015201920191611745565b60ff1916602080860191909152831515909302840190920194506116f791508290506116de565b604051906117a882610231565b60018252602f60f81b6020830152565b604051906117c582610264565b60288252670c4f2e8cae65ce6d60c31b6040837f2e2f6c69622f666f756e6472792d687566662f736372697074732f72616e645f60208201520152565b5f1981019190821161150657565b602003906020821161150657565b9190820391821161150657565b60216102da91939293604051948161184d8793518092602080870191016103e8565b8201602f60f81b602082015261186c82518093602087850191016103e8565b0103600181018552018361027f565b6029906102da929493604051958261189d8894518092602080880191016103e8565b8301602f60f81b6020820152675f5f54454d505f5f60c01b60218201526118cd82518093602088850191016103e8565b016118e182518093602087850191016103e8565b0103600981018552018361027f565b60286102da91939293604051948591675f5f54454d505f5f60c01b602084015261192381518092602087870191016103e8565b820161193882518093602087850191016103e8565b0103600881018552018361027f565b6040519061195482610264565b60298252680eee4d2e8cae45ce6d60bb1b6040837f2e2f6c69622f666f756e6472792d687566662f736372697074732f66696c655f60208201520152565b906102da60296040518094637372632f60e01b60208301526119be8151809260206024860191016103e8565b81016417343ab33360d91b602482015203600981018552018361027f565b604051905f8054836119ed826101e5565b92600192808416908115611a685750600114611a1f575b6102da9350600560f91b815203601e1981018552018361027f565b50505f8052835f8051602061263d8339815191525f905b848210611a4d57505060206102da93820101611a04565b80546020838901810191909152879350909101908301611a36565b602092506102da95915060ff19168284015280151502820101611a04565b60405190611a9382610264565b602d82526c0c2dcc8bec2e0e0cadcc85ce6d609b1b6040837f2e2f6c69622f666f756e6472792d687566662f736372697074732f726561645f60208201520152565b60405190611ae282610231565b60028252612d6360f01b6020830152565b60405190611b0082610231565b60606020838281520152565b90604051611b1981610231565b6020611b3360018395611b2b81610349565b855201610349565b910152565b60216102da919392936040519481611b5a8793518092602080870191016103e8565b8201603d60f81b602082015261186c82518093602087850191016103e8565b60405190611b8682610231565b6005825264687566666360d81b6020830152565b60405190611ba782610231565b600282526116b160f11b6020830152565b60405190611bc582610231565b60028252612d6560f01b6020830152565b60405190611be382610231565b6002825261726d60f01b6020830152565b611bfc61139d565b611c058161216d565b611c15611c1061179b565b61216d565b90611c30611c2b611c268484612402565b61153f565b611172565b935f5b8551811015611c7257611c6d90611c52611c4d8686612256565b612193565b611c5c8289611218565b52611c678188611218565b5061159a565b611c33565b5092915050611c7f611084565b92611c886117b8565b611c91856111bb565b52611c9b846111bb565b506040918251638916046760e01b9283825281611cbc60049889830161128a565b03915f81737109709ecfa91a80626ff3989d68f67f5b1dd12d948183875af18015610ccf57611cf2915f9161213c575b50611693565b855160208082019283528082529291611d1891611d1060408261027f565b51902061248c565b611d21826111bb565b5191600180825111155f146120cb575050611db091611d3f916118f0565b935b5f611d4a6110b8565b611d52611947565b611d5b826111bb565b52611d65816111bb565b50611d6f87611992565b611d78826111c8565b52611d82816111c8565b50611d8b6119dc565b611d94826111d8565b52611d9e816111d8565b508851809481928a83528d830161128a565b038183885af1908115610ccf57611e38925f926120b1575b50611e13611dd46110b8565b91611ddd611a86565b611de6846111bb565b52611df0836111bb565b50611dfa88611992565b611e03846111c8565b52611e0d836111c8565b50611992565b611e1c826111d8565b52611e26816111d8565b508751809381928983528c830161128a565b038183875af18015610ccf57612097575b50611e526110fe565b906005548061200b575b50505f611f0191611e6b611b79565b611e74826111bb565b52611e7e816111bb565b50611e8885611992565b611e91826111c8565b52611e9b816111c8565b50611ea4611b9a565b611ead826111d8565b52611eb7816111d8565b50611ec0611bb8565b611ec9826111f8565b52611ed3816111f8565b50611edc6116b5565b611ee582611208565b52611eef81611208565b508651809381928883528b830161128a565b038183865af1908115610ccf575f91611ff2575b5095611f3e611f2261113f565b93611f2b611bd6565b611f34866111bb565b52611e0d856111bb565b611f47846111c8565b52611f51836111c8565b506003546001600160a01b031693823b1561049757855163ca669fa760e01b81526001600160a01b039095168286019081525f9086908190602001038183875af1908115610ccf57611fb8965f968793611fdf575b5051968795869485938452830161128a565b03925af18015610ccf57611fc95750565b611fdc903d805f833e6114a2818361027f565b50565b80610cc3611fec92610251565b5f611fa6565b612005913d8091833e6114a2818361027f565b5f611f15565b90915061201a611c2b8261154d565b91612023611ad5565b61202c846111e8565b52612036836111e8565b5061203f611af3565b505f5b82811061204f5750611e5c565b80611c6761207761206b612065612092956101a8565b50611b0c565b85815191015190611b38565b6120808361154d565b9061208b8289611218565b5286611218565b612042565b6120aa903d805f833e6114a2818361027f565b505f611e49565b6120c4903d8085833e6114a2818361027f565b505f611dc8565b80805b6120fe575b5050916120f8916120f1846120eb611db09651611802565b90611218565b519161187b565b93611d41565b909361210a8351611802565b8510156121365761212961212f916121228786611218565b519061182b565b9461159a565b90806120ce565b936120d3565b61214f913d8091833e6114a2818361027f565b5f611cec565b6040519061216282610231565b5f6020838281520152565b612175612155565b5060208151916040519261218884610231565b835201602082015290565b8051906121b86121a28361049b565b926121b0604051948561027f565b80845261049b565b601f19906020848101918301368337808401519351919391925b8184101561221a57505f1992806121f4575b5050518251821691191617905290565b9080929350039081116115065761220d61221291612247565b611802565b905f806121e4565b929193845181528181018091116115065793818101809111611506579183810190811161150657926121d2565b601f8111611506576101000a90565b9190612260612155565b92612269612155565b50805191612285602083019384518351906020850151926122ed565b9083516020870152835182038281116115065786528351835181018091116115065782036122b55750505f915052565b85519281518401809411611506576122d16122da94825161181e565b9052519061155b565b9052565b60ff8111611506576001901b90565b919281935f84821115612308575b505050610507925061155b565b91939291602082116123aa57505f9381612380575b5184169392919061233790612332848461155b565b61181e565b84848751165b0361234a57505050505090565b909192939481811015612371576123609061159a565b94848651169080959493929161233d565b5050909150610507925061155b565b93506123376123a161220d61239c61239785611810565b61150b565b6122de565b1994905061231d565b9290809296942092945b6123be838361181e565b86116123ef5782812084146123e5576123d96123df9161153f565b9561159a565b946123b4565b9450505050915090565b50929491505061050792505f80806122fb565b915f8351936020810191612421835196865160208801988951926122ed565b8551810180911161150657905b8351835181018091116115065782116124835761244a9061159a565b90825190845181038181116115065782039182116115065761247d91612475918851908a51926122ed565b86519061155b565b9061242e565b95505050509050565b5f60605b6020908183101561251a5760ff606181601a87871a06160190811161150657612514926125029261250e9260408051908482019260ff60f81b9060f81b168352600182526124dd82610231565b5195836124f388955180928880890191016103e8565b840191518093868401906103e8565b0103808452018261027f565b9161159a565b90612490565b9250505090565b906040519182815161253b816020948580860191016103e8565b81015f9060019081549161254e836101e5565b928181169081156125bf5750600114612578575b5050506102da925003601f19810184528361027f565b5f8181525f8051602061265d833981519152969450905b8382106125a75750506102da945001015f8080612562565b8654828401860152958601958895509084019061258f565b9150506102da95935060ff9291921916838301528015150201015f8080612562565b156125e857565b60405162461bcd60e51b815260206004820152602660248201527f487566664465706c6f79657220636f756c64206e6f74206465706c6f7920636f6044820152651b9d1c9858dd60d21b6064820152608490fdfe290decd9548b62a8d60345a988386fc84ba6bc95484008f6362f93160ef3e563b10e2d527612073b26eecdfd717e6a320cf44b4afac2b0732d9fcbe2b7fa0cf68a35acfbc15ff81a39ae7d344fd709f28e8600b4aa8c65c6b64bfe7fe36bd19ba2646970667358221220dfc2081f0897db4fda3d2fe9cf5dcdcb571886d07074b0c62770e8d64212692364736f6c63430008140033a2646970667358221220a71db78cd0a62e5edd791fda66019fb111ffbea951d595653a6a2de5602e08ab64736f6c63430008140033",
    "linkReferences": {}
  },
  "methodIdentifiers": {
    "config()": "79502c55",
    "config_with_create_2(uint256)": "01f9ad9c",
    "get_config_with_create_2(uint256)": "25d1b803"
  },
  "id": 9
}