{
  "abi": [
    {
      "inputs": [
        {
          "internalType": "uint256",
          "name": "len",
          "type": "uint256"
        }
      ],
      "name": "Log2",
      "outputs": [
        {
          "internalType": "uint256",
          "name": "",
          "type": "uint256"
        }
      ],
      "stateMutability": "pure",
      "type": "function"
    },
    {
      "inputs": [
        {
          "internalType": "int256[4]",
          "name": "real_part",
          "type": "int256[4]"
        },
        {
          "internalType": "int256[4]",
          "name": "complex_part",
          "type": "int256[4]"
        }
      ],
      "name": "fft",
      "outputs": [
        {
          "internalType": "int256[4]",
          "name": "",
          "type": "int256[4]"
        },
        {
          "internalType": "int256[4]",
          "name": "",
          "type": "int256[4]"
        }
      ],
      "stateMutability": "view",
      "type": "function"
    }
  ],
  "bytecode": {
    "object": "0x6080806040523461002157672b992ddfa23249d65f55610c0890816100268239f35b5f80fdfe60806040526004361015610011575f80fd5b5f803560e01c908163624fb00c14610037575063d322752114610032575f80fd5b610195565b34610071576020366003190112610071576004355b6001808214610066571c9061006090610542565b9061004c565b602083604051908152f35b80fd5b634e487b7160e01b5f52604160045260245ffd5b60405190610440820182811067ffffffffffffffff8211176100a957604052565b610074565b604051906080820182811067ffffffffffffffff8211176100a957604052565b806023121561010b576100df6100ae565b9081608491821161010b576004905b8282106100fb5750505090565b81358152602091820191016100ee565b5f80fd5b8060a3121561010b576101206100ae565b908161010491821161010b576084905b82821061013d5750505090565b8135815260209182019101610130565b5f915b6004831061015d57505050565b600190825181526020809101920192019190610150565b91608061019392949361018c8161010081019761014d565b019061014d565b565b3461010b5761010036600319011261010b576101b0366100ce565b6101b93661010f565b906101c2610579565b506101cb610579565b505f80546004939060021c906101fb6101f66101f06715cc96efd11924eb8501610b38565b93610b38565b610589565b600195868111156104295780961c95610251610225889561024c61024661023361022584806105aa565b670de0b6b3a7640000900590565b61024061022589806105aa565b906105cc565b95610599565b6105aa565b9660028114610413575b670de0b6b3a764000090869287935b82851061027d57505050505091946101fb565b858b85875b600481106102dc5750610225836102c46102256102d697956102be6102b16102256102d09a6102ca999f6105aa565b610240610225848b6105aa565b9b6105aa565b936105aa565b9061061d565b94610542565b9361026a565b92505050826102eb85836105eb565b8c8a826102f886846105f8565b5161030382856105f8565b5161030d916105cc565b928661031981856105f8565b5161032484866105f8565b5161032e916105cc565b9361033982846105f8565b5161034485856105f8565b5161034e9161061d565b61035883856105f8565b5261036382826105f8565b5161036e85836105f8565b516103789161061d565b91610382916105f8565b5261038d848c6105aa565b670de0b6b3a764000090056103a2848a6105aa565b670de0b6b3a764000090056103b6916105cc565b916103c0916105f8565b526103cb90896105aa565b670de0b6b3a76400009005906103e190866105aa565b670de0b6b3a764000090056103f59161061d565b90610400908b6105f8565b5261040a916105eb565b8b858892610282565b61042464e8d4a510008405156105e4565b61025b565b848387610434610555565b925b60048110610452575061044e60405192839283610174565b0390f35b6104ca90600163555555558263aaaaaaaa81841b16921c1617633333333360029163cccccccc81841b16921c1617630f0f0f0f63f0f0f0f08260041b169160041c161762ff00ff60089163ff00ff0081841b16921c161760109080821b911c176104bb86610638565b1c8181116104cf575b50610542565b610436565b6105276104dc83866105f8565b51916104e884886105f8565b51926104f482886105f8565b516104ff86896105f8565b5261050a82896105f8565b51610515868a6105f8565b5261052082886105f8565b52866105f8565b52856104c4565b634e487b7160e01b5f52601160045260245ffd5b5f1981146105505760010190565b61052e565b5f60045b6001908181146105745761056e911c91610542565b90610559565b505090565b6105816100ae565b906080368337565b600160ff1b8114610550575f0390565b908160011b91600283050361055057565b81810292915f8212600160ff1b82141661055057818405149015171561055057565b81810392915f13801582851316918412161761055057565b1561010b57565b9190820180921161055057565b9060048110156106095760051b0190565b634e487b7160e01b5f52603260045260245ffd5b9190915f838201938412911290801582169115161761055057565b602003906020821161055057565b61064e610088565b61040481527ac90f8801921d20025b26d703242abf03ed26e604b6195d057f003560208201527f0647d97c0710a34507d95b9e08a2009a096a90490a3308bc0afb68050bc3ac3560408201527f0c8bd35e0d53db920e1bc2e40ee387660fab272b1072a0481139f0cf120116d560608201527f12c8106e138edbb1145576b1151bdf8515e2144416a81305176dd9de183366e860808201527f18f8b83c19bdcbf31a82a0251b4732ef1c0b826a1ccf8cb31d934fe51e56ca1e60a08201527f1f19f97b1fdcdc1b209f701c2161b39f2223a4c522e541af23a6887e2467775760c08201527f25280c5d25e845b626a8218527679df42826b92828e5714a29a3c4852a61b10160e08201527f2b1f34eb2bdc4e6f2c98fbba2d553afb2e110a622ecc681e2f8752623041c7606101008201527f30fbc54d31b54a5d326e54c73326e2c233def2873496824f354d905636041ad96101208201527f36ba2013376f9e46382493b038d8fe93398cdd323a402dd13af2eeb73ba51e296101408201527f3c56ba703d07c1d53db832a53e680b2c3f1749b73fc5ec974073f21d4121589a6101608201527f41ce1e64427a41d04325c13543d09aec447acd50452456bc45cd358f467568276101808201527f471cece647c3c22e4869e664490f57ee49b415334a581c9d4afb6c974b9e038f6101a08201527f4c3fdff34ce100344d8162c34e2106174ebfe8a44f5e08e24ffb654c5097fc5e6101c08201527f5133cc9451ced46e5269126e53028517539b2aef5433027d54ca0a4a556040e26101e08201527f55f5a4d2568a34a9571deef957b0d2555842dd5458d40e8c5964649759f3de126102008201527f5a8279995b1035ce5b9d11535c290acc5cb420df5d3e52365dc79d7b5e50015d6102208201527f5ed77c895f5e0db25fe3b38d60686cce60ec382f616f146b61f1003e6271fa686102408201527f62f201ac637114cc63ef328f646c59bf64e889256563bf9165ddfbd266573cbb6102608201527f66cf811f6746c7d767bd0fbc683257aa68a69e806919e31f698c246b69fd614a6102808201527f6a6d98a36adcc9646b4af2786bb812d06c24295f6c8f351b6cf934fb6d6227f96102a08201527f6dca0d146e30e3496e96a99c6efb5f116f5f02b16fc1938470231099708378fe6102c08201527f70e2cbc571410804719e2cd171fa394872552c8472af05a67307c3cf735f66256102e08201527f73b5ebd0740b53fa745f9dd074b2c8837504d3447555bd4b75a585ce75f42c0a6103008201527f7641af3c768e0ea576d9498877235f2c776c4eda77b417df77fab988784033286103208201527f7884841378c7aba17909a92c794a7c11798a23b079c89f6d7a05eeac7a4210d86103408201527f7a7d055a7ab6cba37aef63237b26cb4e7b5d039d7b920b887bc5e28f7bf8882f6103608201527f7c29fbed7c5a3d4f7c894bdd7cb727237ce3ceb17d0f42177d3980eb7d628ac56103808201527f7d8a5f3f7db0fdf77dd6668e7dfa98a77e1d93e97e3f57fe7e5fe4927e7f39566103a08201527f7e9d55fb7eba3a387ed5e5c57ef0585f7f0991c37f2191b37f3857f57f4de4506103c08201527f7f62368e7f754e7f7f872bf27f97cebc7fa736b37fb563b27fc255957fce0c3d6103e08201527f7fd8878d7fe1c76a7fe9cbbf7ff094777ff621817ffa72d07ffd88597fff6215610400820152637fffffff60e01b61042082015290565b670de0b6b3a7640000637fffffff916757325bbf446493ac809106601e1b0460ff8160141c166310000000821615908115610bca575b6002610b78610646565b910160021b015163ffffffff808260201c16911661ffff8460041c168282030260101c925f14610bc25750015b6320000000819216610bb8575b50020590565b90505f035f610bb2565b905003610ba5565b60ff03610b6e56fea26469706673582212207cdd8f2817abf644f6012df78dfe7203018e206ba84720d580e4386a0d13478964736f6c63430008140033",
    "linkReferences": {}
  },
  "methodIdentifiers": {
    "Log2(uint256)": "624fb00c",
    "fft(int256[4],int256[4])": "d3227521"
  },
  "id": 11
}